:020000040000FA
:08000000803102288731F62F40
:100A9000103408347D08F8007808F9007C08F80064
:100AA0007808FA007A30F8007808F000F101F10ACD
:100AB000F201F20A79308631C2268531083085315B
:100AC00079258531003A031D682DFB01FB0A692D4C
:100AD000FB017B080319732DF001F00A10308631F9
:100AE0000B2685315E2DF001103086310B268531C5
:100AF0005E2DF200CD2D40010C08013908004001A7
:100B00000C0C0139080040010C0C890C013908005B
:100B100040010C0E0139080040010C0E890C01390E
:100B2000080040010D0E0139080040010D0E890C2E
:100B30000139080040010D0E890C890C01390800AB
:100B400040010D0D0D0D0139080040010E0801395D
:100B5000080040010E0C0139080040010E0C890C00
:100B60000139080040010E0CF000F00C700C013946
:100B7000080040010E0E0139080040010E0E890CDC
:100B80000139080040010E0E890C890C013908005A
:100B900040010E0D0E0D013908007208F000F10140
:100BA0007108003A0319D52D0A2E7008003A03196E
:100BB0007B2D013A03197F2D033A0319832D013A46
:100BC0000319882D073A03198C2D013A0319912D29
:100BD000033A0319952D013A03199A2D0F3A031977
:100BE000A02D013A0319A52D033A0319A92D013AA5
:100BF0000319AD2D073A0319B22D013A0319B92D86
:100C0000033A0319BD2D013A0319C22D1F3A0319E6
:100C1000C82D0A2E0800F300842E700C4001031C1E
:100C20001810031818140800700C4001031C9810C9
:100C3000031898140800700C4001031C18110318C5
:100C400018150800700C4001031C18120318181620
:100C50000800700C4001031C981203189816080035
:100C6000700C4001031C1912031819160800700CAF
:100C70004001031C9912031899160800700C4001DA
:100C8000031C1913031819170800700C4001031CEA
:100C90009913031899170800700C4001031C1A10CF
:100CA00003181A140800700C4001031C9A10031852
:100CB0009A140800700C4001031C1A1103181A152D
:100CC0000800700C4001031C9A1103189A150800C3
:100CD000700C4001031C1A1203181A160800700C3D
:100CE0004001031C9A1203189A160800700C400168
:100CF000031C1A1303181A170800700C4001031C78
:100D00009A1303189A1708007308F100F201720889
:100D1000003A03198C2EC12E7108003A03190D2ECA
:100D2000013A0319142E033A03191B2E013A031931
:100D3000222E073A0319292E013A0319302E033ABD
:100D40000319372E013A03193E2E0F3A0319452E87
:100D5000013A03194C2E033A0319532E013A031991
:100D60005A2E073A0319612E013A0319682E033AE5
:100D700003196F2E013A0319762E1F3A03197D2E9F
:100D8000C12E0800F600F7012E2F400112147E013B
:100D9000381039142A2F400192147E01B810B9146A
:100DA0002A2F400112157E01381139152A2F4001D2
:100DB00012167E01381239162A2F400192167E0132
:100DC000B812B9162A2F400113167E014312441699
:100DD0002A2F400193167E01C312C4162A2F400108
:100DE00013177E01431344172A2F400193177E01E6
:100DF000C313C4172A2F400114147E014E104F1440
:100E00002A2F400194147E01CE10CF142A2F4001C6
:100E100014157E014E114F152A2F400194157E01A5
:100E2000CE11CF152A2F400114167E014E124F16F7
:100E30002A2F400194167E01CE12CF162A2F400190
:100E400014177E014E134F172A2F400194177E016D
:100E5000CE13CF170130F3007308F707710877023C
:100E60000318762F77087607F3007308860087014A
:100E70000108F400F5017508003A0319402F2A2FE4
:100E80007408003A0319C52E013A0319CB2E033A10
:100E90000319D12E013A0319D72E073A0319DD2E73
:100EA000013A0319E32E033A0319E92E013A031913
:100EB000EF2E0F3A0319F52E013A0319FB2E033AD0
:100EC0000319012F013A0319072F073A03190D2FB0
:100ED000013A0319132F033A0319192F013A031981
:100EE0001F2F1F3A0319252F2A2F2A2FF701AE2F64
:100EF00040011210AA2F40019210AA2F4001121196
:100F0000AA2F40011212AA2F40019212AA2F4001CB
:100F10001312AA2F40019312AA2F40011313AA2FD4
:100F200040019313AA2F40011410AA2F40019410DE
:100F3000AA2F40011411AA2F40019411AA2F400199
:100F40001412AA2F40019412AA2F40011413AA2FA1
:100F5000400194130130F3007308F7077208770219
:100F60000318080077087007F300730886008701EC
:100F70000108F400F5017508003A0319C02FAA2FE3
:100F80007408003A0319782F013A03197B2F033AAA
:100F900003197E2F013A0319812F073A0319842F71
:100FA000013A0319872F033A03198A2F013A0319CB
:100FB0008D2F0F3A0319902F013A0319932F033AFB
:100FC0000319962F013A0319992F073A03199C2FF9
:100FD000013A03199F2F033A0319A22F013A03196B
:100FE000A52F1F3A0319A82FAA2FAA2F853148250C
:100FF0008731FC0085314925FD00400185314A2DAE
:00000001FF
