:020000040000FA
:08000000803102288731F62F40
:100D3C00103408347D08F8007808F9007C08F800B5
:100D4C007808FA007A30F8007808F000F101F10A1E
:100D5C00F201F20A79308631C226863140018D1BB0
:100D6C00BA2EFB01FB0ABB2EFB017B080319C02E1C
:100D7C009A17B42E9A13B42EF600F7012E2F4001B9
:100D8C0012147E01381039142A2F400192147E015E
:100D9C00B810B9142A2F400112157E0138113915DB
:100DAC002A2F400112167E01381239162A2F4001C3
:100DBC0092167E01B812B9162A2F400113167E0125
:100DCC00431244162A2F400193167E01C312C416F7
:100DDC002A2F400113177E01431344172A2F400179
:100DEC0093177E01C313C4172A2F400114147E01DC
:100DFC004E104F142A2F400194147E01CE10CF14A4
:100E0C002A2F400114157E014E114F152A2F400137
:100E1C0094157E01CE11CF152A2F400114167E0198
:100E2C004E124F162A2F400194167E01CE12CF1669
:100E3C002A2F400114177E014E134F172A2F400101
:100E4C0094177E01CE13CF170130F3007308F70708
:100E5C00710877020318762F77087607F30073086A
:100E6C00860087010108F400F5017508003A0319A2
:100E7C00402F2A2F7408003A0319C52E013A031982
:100E8C00CB2E033A0319D12E013A0319D72E073A68
:100E9C000319DD2E013A0319E32E033A0319E92E47
:100EAC00013A0319EF2E0F3A0319F52E013A0319E3
:100EBC00FB2E033A0319012F013A0319072F073AA6
:100ECC0003190D2F013A0319132F033A0319192F84
:100EDC00013A03191F2F1F3A0319252F2A2F2A2FE6
:100EEC00F701AE2F40011210AA2F40019210AA2F29
:100EFC0040011211AA2F40011212AA2F4001921286
:100F0C00AA2F40011312AA2F40019312AA2F4001BD
:100F1C001313AA2F40019313AA2F40011410AA2FC8
:100F2C0040019410AA2F40011411AA2F40019411D2
:100F3C00AA2F40011412AA2F40019412AA2F40018B
:100F4C001413AA2F400194130130F3007308F70710
:100F5C00720877020318080077087007F30073080B
:100F6C00860087010108F400F5017508003A0319A1
:100F7C00C02FAA2F7408003A0319782F013A0319CD
:100F8C007B2F033A03197E2F013A0319812F073A5D
:100F9C000319842F013A0319872F033A03198A2F57
:100FAC00013A03198D2F0F3A0319902F013A0319A7
:100FBC00932F033A0319962F013A0319992F073AE5
:100FCC0003199C2F013A03199F2F033A0319A22FDF
:100FDC00013A0319A52F1F3A0319A82FAA2FAA2FDC
:100FEC0086319E268731FC0086319F26FD0040010C
:040FFC008631A02E6C
:00000001FF
