:020000040000FA
:0400000080310D2816
:100008007E14803101304001DE070030DF3D7E1074
:10001800090080310F28ED308400843085006A3073
:1000280086000030870005308431E1248031F230C9
:10003800840084308500B1308600003087000530A8
:100048008431E1248031FC01FD015A308400003004
:10005800850010308431E7248031A03084000030DE
:10006800850011308431E7247E10400184314A2C08
:10007800F600F701A828400112147E01381039143F
:10008800A428400192147E01B810B914A428400194
:1000980012157E0138113915A428400112167E0167
:1000A80038123916A428400192167E01B812B916E2
:1000B800A428400113167E0143124416A4284001C7
:1000C80093167E01C312C416A428400113177E019B
:1000D80043134417A428400193177E01C313C41780
:1000E800A428400114147E014E104F14A428400186
:1000F80094147E01CE10CF14A428400114157E015B
:100108004E114F15A428400194157E01CE11CF152C
:10011800A428400114167E014E124F16A42840014F
:1001280094167E01CE12CF16A428400114177E0122
:100138004E134F17A428400194177E01CE13CF17F2
:100148000130F3007308F707710877020318F028E5
:1001580077087607F3007308860087010108F40022
:10016800F5017508003A0319BA28A4287408003A5A
:1001780003193F28013A03194528033A03194B2864
:10018800013A03195128073A03195728013A031964
:100198005D28033A03196328013A031969280F3ABD
:1001A80003196F28013A03197528033A03197B28A4
:1001B800013A03198128073A03198728013A0319D4
:1001C8008D28033A03199328013A031999281F3AED
:1001D80003199F28A428A428F701282940011210F0
:1001E8002429400192102429400112112429400198
:1001F80012122429400192122429400113122429A1
:100208004001931224294001131324294001931318
:100218002429400114102429400194102429400164
:10022800141124294001941124294001141224296D
:1002380040019412242940011413242940019413E5
:100248000130F3007308F7077208770203180800F3
:1002580077087007F3007308860087010108F40027
:10026800F5017508003A03193A2924297408003A57
:100278000319F228013A0319F528033A0319F82853
:10028800013A0319FB28073A0319FE28013A031912
:100298000129033A03190429013A031907290F3AD6
:1002A80003190A29013A03190D29033A03191029D8
:1002B800013A03191329073A03191629013A0319B0
:1002C8001929033A03191C29013A03191F291F3A4E
:1002D8000319222924292429F3003E2A700C4001FD
:1002E800031C1810031818147008F1007108410154
:1002F800A0000800700C4001031C98100318981403
:100308007008F10071084101A1000800700C40015B
:10031800031C1811031818157008F1007108410121
:10032800A2000800700C4001031C181203181816CC
:100338007008F10071084101A3000800700C400129
:10034800031C9812031898167008F10071084101EF
:10035800A4000800700C4001031C19120318191698
:100368007008F10071084101A5000800700C4001F7
:10037800031C9912031899167008F10071084101BD
:10038800A6000800700C4001031C19130318191764
:100398007008F10071084101A7000800700C4001C5
:1003A800031C9913031899177008F100710841018B
:1003B800A8000800700C4001031C1A1003181A1436
:1003C8007008F10071084101A9000800700C400193
:1003D800031C9A1003189A147008F100710841015F
:1003E800AA000800700C4001031C1A1103181A1502
:1003F8007008F10071084101AB000800700C400161
:10040800031C9A1103189A157008F100710841012C
:10041800AC000800700C4001031C1A1203181A16CD
:100428007008F10071084101AD000800700C40012E
:10043800031C9A1203189A167008F10071084101FA
:10044800AE000800700C4001031C1A1303181A1799
:100458007008F10071084101AF000800700C4001FC
:10046800031C9A1303189A177008F10071084101C8
:10047800B00008007308F100F2017208003A03198D
:10048800462A7B2A7108003A03197229013A03198E
:100498007E29033A03198A29013A03199629073A4A
:1004A8000319A229013A0319AE29033A0319BA29F3
:1004B800013A0319C6290F3A0319D229013A031937
:1004C800DE29033A0319EA29013A0319F629073AFA
:1004D8000319022A013A03190E2A033A03191A2AA0
:1004E800013A0319262A1F3A0319322A7B2A0800DF
:1004F800F200C52A40010C18832A00300800013098
:10050800080040018C1C812A832A40010C19832A87
:10051800812A40010C1A832A812A40018C1A832AD5
:10052800812A40010D1A832A812A40018D1A832AC3
:10053800812A40010D1B832A812A40018D1B832AB1
:10054800812A40010E18832A812A40018E18832AA5
:10055800812A40010E19832A812A40018E19832A93
:10056800812A40010E1A832A812A40018E1A832A81
:10057800812A40010E1B832A812A40018E1B832A6F
:10058800812A7208F000F1017108003A0319CD2A96
:10059800022B7008003A03197E2A013A0319852AAA
:1005A800033A0319892A013A03198D2A073A0319CC
:1005B800912A013A0319952A033A0319992A013A0B
:1005C80003199D2A0F3A0319A12A013A0319A52AEA
:1005D800033A0319A92A013A0319AD2A073A03195C
:1005E800B12A013A0319B52A033A0319B92A013A7B
:1005F8000319BD2A1F3A0319C12A022B080001302A
:100608004001B0000030B1000030B2000030B3004B
:100618000030B4000030B5000030B6000030B7003C
:100628006208A0006308A1006408A2006508A3008E
:100638006608A4006708A5006808A6006908A7005E
:100648005830AF005130AE00F430AD002D30AC0062
:100658004C30AB009530AA007F30A9002D30A8009F
:10066800843199248331400120308600003087008E
:10067800403FB007413FB13D423FB23D433FB33DEC
:10068800443FB43D453FB53D463FB63D473FB73D86
:100698003708E9003608E8003508E7003408E600BE
:1006A8003308E5003208E4003108E3003008E200CE
:1006B8006230860000308700403FB000413FB10003
:1006C800423FB200433FB300443FB400453FB5004A
:1006D800463FB600473FB70007304001B736B60C73
:1006E800B50CB40CB30CB20CB10CB00C890B712B5B
:1006F80040013108FA003008F90008004001CA003A
:100708004108803AC20080304202031D8D2B02301E
:100718004002031C08004001CB01CC014008FF3E09
:10072800C200FF30413DC3004C08803AC400430872
:10073800803A4402031DA22B42084B02031808000A
:1007480040014B084002B8004C08413BB900FF305B
:10075800BA007F30BB008331F82383314001380869
:10076800013EC5000030393DC6004608B9004508BD
:10077800B8008331032383317A084001BB0079082C
:10078800BA008331F823833140014B083807C80089
:100798004C08393DC90048084A07C200420886008B
:1007A80087010108C3004308C7004B084A07C20075
:1007B8004208860087010108C30048084A07C400A8
:1007C800440886008701430881004708C2004B0897
:1007D8004A07C300430886008701420881000130A8
:1007E800CB070030CC3D922B4001BD01B91F032C33
:1007F800B809B909B80A0319B90ABD01BD0ABB1F6E
:100808000E2CBA09BB09BA0A0319BB0A0130FB004E
:100818007B08BD06BE01BF013808390403193D2C09
:10082800BC01BC0AB91B222C0130B835B90D890BA3
:10083800192C0130FB007B08BC07162C0130BE3593
:10084800BF0D890B232C39083B02031D2D2C3808BA
:100858003A02031C342C3808BA023908BB3B3E1450
:100868000130B936B80C890B352C0130BC02031D98
:10087800222C3D080319452CBE09BF09BE0A0319DD
:10088800BF0A3F08B9003E08B80008006A30860071
:10089800003087005030840000308500053040016A
:1008A800CD0016001A00CD0B552CB1308600003053
:1008B800870055308400003085000530CD001600D3
:1008C8001A00CD0B632C0530C0000030C100503039
:1008D80083318223843105304001C0000030C100DB
:1008E800553083318223843155304001CD004D0885
:1008F800F0000530CE004E08F1000530CF004F085B
:10090800F200503080313C208431902CF001F00A04
:100918001030813170218431083082317C22843159
:10092800003A03198A2CF0018C2C713086000030B3
:1009380087000830F00000301E00F00BA02C4001AA
:10094800201CB62C2808F1072908F23D2A08F33D97
:100958002B08F43D2C08F53D2D08F63D2E08F73DF3
:100968002F08F83DA835A90DAA0DAB0DAC0DAD0D9E
:10097800AE0DAF0DA736A60CA50CA40CA30CA20CAB
:10098800A10CA00C2008210422042304240425041B
:1009980026042704031DA32C7108A0007208A100D7
:1009A8007308A2007408A3007508A4007608A500BF
:1009B8007708A6007808A7000800FE0012001E00AD
:1009C800FE0BE22C0034640080010131890BE82C15
:1009D80000340D340C340F34103408340A340B341A
:0609E8000534063407345B
:020000040001F9
:020012009F3F0E
:00000001FF
